{
  "_format": "hh-sol-artifact-1",
  "contractName": "CitizenERC721",
  "sourceName": "contracts/CitizenERC721.sol",
  "abi": [
    {
      "anonymous": false,
      "inputs": [
        {
          "indexed": false,
          "internalType": "address",
          "name": "previousAdmin",
          "type": "address"
        },
        {
          "indexed": false,
          "internalType": "address",
          "name": "newAdmin",
          "type": "address"
        }
      ],
      "name": "AdminChanged",
      "type": "event"
    },
    {
      "anonymous": false,
      "inputs": [
        {
          "indexed": true,
          "internalType": "address",
          "name": "owner",
          "type": "address"
        },
        {
          "indexed": true,
          "internalType": "address",
          "name": "approved",
          "type": "address"
        },
        {
          "indexed": true,
          "internalType": "uint256",
          "name": "tokenId",
          "type": "uint256"
        }
      ],
      "name": "Approval",
      "type": "event"
    },
    {
      "anonymous": false,
      "inputs": [
        {
          "indexed": true,
          "internalType": "address",
          "name": "owner",
          "type": "address"
        },
        {
          "indexed": true,
          "internalType": "address",
          "name": "operator",
          "type": "address"
        },
        {
          "indexed": false,
          "internalType": "bool",
          "name": "approved",
          "type": "bool"
        }
      ],
      "name": "ApprovalForAll",
      "type": "event"
    },
    {
      "anonymous": false,
      "inputs": [
        {
          "indexed": true,
          "internalType": "address",
          "name": "beacon",
          "type": "address"
        }
      ],
      "name": "BeaconUpgraded",
      "type": "event"
    },
    {
      "anonymous": false,
      "inputs": [
        {
          "indexed": false,
          "internalType": "uint256",
          "name": "tokenId",
          "type": "uint256"
        },
        {
          "indexed": false,
          "internalType": "bytes32",
          "name": "publicKeyHash",
          "type": "bytes32"
        },
        {
          "indexed": false,
          "internalType": "bytes32",
          "name": "merkleRoot",
          "type": "bytes32"
        }
      ],
      "name": "DeviceSet",
      "type": "event"
    },
    {
      "anonymous": false,
      "inputs": [
        {
          "indexed": true,
          "internalType": "bytes32",
          "name": "role",
          "type": "bytes32"
        },
        {
          "indexed": true,
          "internalType": "bytes32",
          "name": "previousAdminRole",
          "type": "bytes32"
        },
        {
          "indexed": true,
          "internalType": "bytes32",
          "name": "newAdminRole",
          "type": "bytes32"
        }
      ],
      "name": "RoleAdminChanged",
      "type": "event"
    },
    {
      "anonymous": false,
      "inputs": [
        {
          "indexed": true,
          "internalType": "bytes32",
          "name": "role",
          "type": "bytes32"
        },
        {
          "indexed": true,
          "internalType": "address",
          "name": "account",
          "type": "address"
        },
        {
          "indexed": true,
          "internalType": "address",
          "name": "sender",
          "type": "address"
        }
      ],
      "name": "RoleGranted",
      "type": "event"
    },
    {
      "anonymous": false,
      "inputs": [
        {
          "indexed": true,
          "internalType": "bytes32",
          "name": "role",
          "type": "bytes32"
        },
        {
          "indexed": true,
          "internalType": "address",
          "name": "account",
          "type": "address"
        },
        {
          "indexed": true,
          "internalType": "address",
          "name": "sender",
          "type": "address"
        }
      ],
      "name": "RoleRevoked",
      "type": "event"
    },
    {
      "anonymous": false,
      "inputs": [
        {
          "indexed": true,
          "internalType": "address",
          "name": "from",
          "type": "address"
        },
        {
          "indexed": true,
          "internalType": "address",
          "name": "to",
          "type": "address"
        },
        {
          "indexed": true,
          "internalType": "uint256",
          "name": "tokenId",
          "type": "uint256"
        }
      ],
      "name": "Transfer",
      "type": "event"
    },
    {
      "anonymous": false,
      "inputs": [
        {
          "indexed": false,
          "internalType": "string",
          "name": "baseURI",
          "type": "string"
        }
      ],
      "name": "UpdateBaseURI",
      "type": "event"
    },
    {
      "anonymous": false,
      "inputs": [
        {
          "indexed": false,
          "internalType": "address",
          "name": "registryAddress",
          "type": "address"
        }
      ],
      "name": "UpdateRegistry",
      "type": "event"
    },
    {
      "anonymous": false,
      "inputs": [
        {
          "indexed": true,
          "internalType": "address",
          "name": "implementation",
          "type": "address"
        }
      ],
      "name": "Upgraded",
      "type": "event"
    },
    {
      "inputs": [],
      "name": "DEFAULT_ADMIN_ROLE",
      "outputs": [
        {
          "internalType": "bytes32",
          "name": "",
          "type": "bytes32"
        }
      ],
      "stateMutability": "view",
      "type": "function"
    },
    {
      "inputs": [],
      "name": "DEVICE_ROLE",
      "outputs": [
        {
          "internalType": "bytes32",
          "name": "",
          "type": "bytes32"
        }
      ],
      "stateMutability": "view",
      "type": "function"
    },
    {
      "inputs": [],
      "name": "MINTER_ROLE",
      "outputs": [
        {
          "internalType": "bytes32",
          "name": "",
          "type": "bytes32"
        }
      ],
      "stateMutability": "view",
      "type": "function"
    },
    {
      "inputs": [],
      "name": "UPGRADER_ROLE",
      "outputs": [
        {
          "internalType": "bytes32",
          "name": "",
          "type": "bytes32"
        }
      ],
      "stateMutability": "view",
      "type": "function"
    },
    {
      "inputs": [],
      "name": "_ensRegistrar",
      "outputs": [
        {
          "internalType": "contract CitizenENSRegistrar",
          "name": "",
          "type": "address"
        }
      ],
      "stateMutability": "view",
      "type": "function"
    },
    {
      "inputs": [],
      "name": "_registryAddress",
      "outputs": [
        {
          "internalType": "address",
          "name": "",
          "type": "address"
        }
      ],
      "stateMutability": "view",
      "type": "function"
    },
    {
      "inputs": [
        {
          "internalType": "address",
          "name": "to",
          "type": "address"
        },
        {
          "internalType": "uint256",
          "name": "tokenId",
          "type": "uint256"
        }
      ],
      "name": "approve",
      "outputs": [],
      "stateMutability": "nonpayable",
      "type": "function"
    },
    {
      "inputs": [
        {
          "internalType": "address",
          "name": "owner",
          "type": "address"
        }
      ],
      "name": "balanceOf",
      "outputs": [
        {
          "internalType": "uint256",
          "name": "",
          "type": "uint256"
        }
      ],
      "stateMutability": "view",
      "type": "function"
    },
    {
      "inputs": [
        {
          "internalType": "uint256",
          "name": "tokenId",
          "type": "uint256"
        }
      ],
      "name": "burn",
      "outputs": [],
      "stateMutability": "nonpayable",
      "type": "function"
    },
    {
      "inputs": [
        {
          "internalType": "uint256",
          "name": "tokenId",
          "type": "uint256"
        }
      ],
      "name": "deviceId",
      "outputs": [
        {
          "internalType": "bytes32",
          "name": "",
          "type": "bytes32"
        }
      ],
      "stateMutability": "view",
      "type": "function"
    },
    {
      "inputs": [
        {
          "internalType": "uint256",
          "name": "tokenId",
          "type": "uint256"
        }
      ],
      "name": "deviceRoot",
      "outputs": [
        {
          "internalType": "bytes32",
          "name": "",
          "type": "bytes32"
        }
      ],
      "stateMutability": "view",
      "type": "function"
    },
    {
      "inputs": [
        {
          "internalType": "uint256",
          "name": "tokenId",
          "type": "uint256"
        }
      ],
      "name": "getApproved",
      "outputs": [
        {
          "internalType": "address",
          "name": "",
          "type": "address"
        }
      ],
      "stateMutability": "view",
      "type": "function"
    },
    {
      "inputs": [
        {
          "internalType": "bytes32",
          "name": "role",
          "type": "bytes32"
        }
      ],
      "name": "getRoleAdmin",
      "outputs": [
        {
          "internalType": "bytes32",
          "name": "",
          "type": "bytes32"
        }
      ],
      "stateMutability": "view",
      "type": "function"
    },
    {
      "inputs": [
        {
          "internalType": "bytes32",
          "name": "role",
          "type": "bytes32"
        },
        {
          "internalType": "address",
          "name": "account",
          "type": "address"
        }
      ],
      "name": "grantRole",
      "outputs": [],
      "stateMutability": "nonpayable",
      "type": "function"
    },
    {
      "inputs": [
        {
          "internalType": "bytes32",
          "name": "role",
          "type": "bytes32"
        },
        {
          "internalType": "address",
          "name": "account",
          "type": "address"
        }
      ],
      "name": "hasRole",
      "outputs": [
        {
          "internalType": "bool",
          "name": "",
          "type": "bool"
        }
      ],
      "stateMutability": "view",
      "type": "function"
    },
    {
      "inputs": [],
      "name": "initialize",
      "outputs": [],
      "stateMutability": "nonpayable",
      "type": "function"
    },
    {
      "inputs": [
        {
          "internalType": "address",
          "name": "owner",
          "type": "address"
        },
        {
          "internalType": "address",
          "name": "operator",
          "type": "address"
        }
      ],
      "name": "isApprovedForAll",
      "outputs": [
        {
          "internalType": "bool",
          "name": "",
          "type": "bool"
        }
      ],
      "stateMutability": "view",
      "type": "function"
    },
    {
      "inputs": [
        {
          "internalType": "address",
          "name": "to",
          "type": "address"
        }
      ],
      "name": "mint",
      "outputs": [],
      "stateMutability": "nonpayable",
      "type": "function"
    },
    {
      "inputs": [],
      "name": "name",
      "outputs": [
        {
          "internalType": "string",
          "name": "",
          "type": "string"
        }
      ],
      "stateMutability": "view",
      "type": "function"
    },
    {
      "inputs": [
        {
          "internalType": "uint256",
          "name": "tokenId",
          "type": "uint256"
        }
      ],
      "name": "ownerOf",
      "outputs": [
        {
          "internalType": "address",
          "name": "",
          "type": "address"
        }
      ],
      "stateMutability": "view",
      "type": "function"
    },
    {
      "inputs": [
        {
          "internalType": "bytes32",
          "name": "role",
          "type": "bytes32"
        },
        {
          "internalType": "address",
          "name": "account",
          "type": "address"
        }
      ],
      "name": "renounceRole",
      "outputs": [],
      "stateMutability": "nonpayable",
      "type": "function"
    },
    {
      "inputs": [
        {
          "internalType": "bytes32",
          "name": "role",
          "type": "bytes32"
        },
        {
          "internalType": "address",
          "name": "account",
          "type": "address"
        }
      ],
      "name": "revokeRole",
      "outputs": [],
      "stateMutability": "nonpayable",
      "type": "function"
    },
    {
      "inputs": [
        {
          "internalType": "address",
          "name": "from",
          "type": "address"
        },
        {
          "internalType": "address",
          "name": "to",
          "type": "address"
        },
        {
          "internalType": "uint256",
          "name": "tokenId",
          "type": "uint256"
        }
      ],
      "name": "safeTransferFrom",
      "outputs": [],
      "stateMutability": "nonpayable",
      "type": "function"
    },
    {
      "inputs": [
        {
          "internalType": "address",
          "name": "from",
          "type": "address"
        },
        {
          "internalType": "address",
          "name": "to",
          "type": "address"
        },
        {
          "internalType": "uint256",
          "name": "tokenId",
          "type": "uint256"
        },
        {
          "internalType": "bytes",
          "name": "_data",
          "type": "bytes"
        }
      ],
      "name": "safeTransferFrom",
      "outputs": [],
      "stateMutability": "nonpayable",
      "type": "function"
    },
    {
      "inputs": [
        {
          "internalType": "address",
          "name": "operator",
          "type": "address"
        },
        {
          "internalType": "bool",
          "name": "approved",
          "type": "bool"
        }
      ],
      "name": "setApprovalForAll",
      "outputs": [],
      "stateMutability": "nonpayable",
      "type": "function"
    },
    {
      "inputs": [
        {
          "internalType": "uint256",
          "name": "tokenId",
          "type": "uint256"
        },
        {
          "internalType": "bytes32",
          "name": "publicKeyHash",
          "type": "bytes32"
        },
        {
          "internalType": "bytes32",
          "name": "merkleRoot",
          "type": "bytes32"
        }
      ],
      "name": "setDevice",
      "outputs": [],
      "stateMutability": "nonpayable",
      "type": "function"
    },
    {
      "inputs": [
        {
          "internalType": "contract CitizenENSRegistrar",
          "name": "ensRegistrar",
          "type": "address"
        }
      ],
      "name": "setENSRegistrarAddress",
      "outputs": [],
      "stateMutability": "nonpayable",
      "type": "function"
    },
    {
      "inputs": [
        {
          "internalType": "address",
          "name": "registryAddress",
          "type": "address"
        }
      ],
      "name": "setRegistryAddress",
      "outputs": [],
      "stateMutability": "nonpayable",
      "type": "function"
    },
    {
      "inputs": [
        {
          "internalType": "bytes4",
          "name": "interfaceId",
          "type": "bytes4"
        }
      ],
      "name": "supportsInterface",
      "outputs": [
        {
          "internalType": "bool",
          "name": "",
          "type": "bool"
        }
      ],
      "stateMutability": "view",
      "type": "function"
    },
    {
      "inputs": [],
      "name": "symbol",
      "outputs": [
        {
          "internalType": "string",
          "name": "",
          "type": "string"
        }
      ],
      "stateMutability": "view",
      "type": "function"
    },
    {
      "inputs": [
        {
          "internalType": "uint256",
          "name": "index",
          "type": "uint256"
        }
      ],
      "name": "tokenByIndex",
      "outputs": [
        {
          "internalType": "uint256",
          "name": "",
          "type": "uint256"
        }
      ],
      "stateMutability": "view",
      "type": "function"
    },
    {
      "inputs": [
        {
          "internalType": "address",
          "name": "owner",
          "type": "address"
        },
        {
          "internalType": "uint256",
          "name": "index",
          "type": "uint256"
        }
      ],
      "name": "tokenOfOwnerByIndex",
      "outputs": [
        {
          "internalType": "uint256",
          "name": "",
          "type": "uint256"
        }
      ],
      "stateMutability": "view",
      "type": "function"
    },
    {
      "inputs": [
        {
          "internalType": "uint256",
          "name": "tokenId",
          "type": "uint256"
        }
      ],
      "name": "tokenURI",
      "outputs": [
        {
          "internalType": "string",
          "name": "",
          "type": "string"
        }
      ],
      "stateMutability": "view",
      "type": "function"
    },
    {
      "inputs": [],
      "name": "totalSupply",
      "outputs": [
        {
          "internalType": "uint256",
          "name": "",
          "type": "uint256"
        }
      ],
      "stateMutability": "view",
      "type": "function"
    },
    {
      "inputs": [
        {
          "internalType": "address",
          "name": "to",
          "type": "address"
        },
        {
          "internalType": "uint256",
          "name": "tokenId",
          "type": "uint256"
        }
      ],
      "name": "transfer",
      "outputs": [],
      "stateMutability": "nonpayable",
      "type": "function"
    },
    {
      "inputs": [
        {
          "internalType": "address",
          "name": "from",
          "type": "address"
        },
        {
          "internalType": "address",
          "name": "to",
          "type": "address"
        },
        {
          "internalType": "uint256",
          "name": "tokenId",
          "type": "uint256"
        }
      ],
      "name": "transferFrom",
      "outputs": [],
      "stateMutability": "nonpayable",
      "type": "function"
    },
    {
      "inputs": [
        {
          "internalType": "string",
          "name": "baseURI",
          "type": "string"
        }
      ],
      "name": "updateBaseURI",
      "outputs": [],
      "stateMutability": "nonpayable",
      "type": "function"
    },
    {
      "inputs": [
        {
          "internalType": "address",
          "name": "newImplementation",
          "type": "address"
        }
      ],
      "name": "upgradeTo",
      "outputs": [],
      "stateMutability": "nonpayable",
      "type": "function"
    },
    {
      "inputs": [
        {
          "internalType": "address",
          "name": "newImplementation",
          "type": "address"
        },
        {
          "internalType": "bytes",
          "name": "data",
          "type": "bytes"
        }
      ],
      "name": "upgradeToAndCall",
      "outputs": [],
      "stateMutability": "payable",
      "type": "function"
    }
  ],
  "bytecode": "0x608060405234801561001057600080fd5b5061311d806100206000396000f3fe6080604052600436106101c05760003560e01c806301ffc9a7146101c557806306fdde03146101fa578063081812fc1461021c578063095ea7b3146102495780630e8cd9ea1461026b57806318160ddd1461028b57806323b872dd146102aa578063248a9ca3146102ca5780632f2ff15d146102ea5780632f745c591461030a57806336568abe1461032a5780633659cfe61461034a57806342842e0e1461036a57806342966c681461038a5780634f1ef286146103aa5780634f6ccce7146103bd578063508191cc146103dd5780636352211e146103fd5780636a6278421461041d57806370a082311461043d5780638129fc1c1461045d57806390e4c33d1461047257806391d1485414610492578063931688cb146104b257806395d89b41146104d2578063a217fddf146104e7578063a22cb465146104fc578063a2dd48311461051c578063a9059cbb1461053d578063ab7b49931461055d578063b0e26d701461057d578063b88d4fde1461059f578063c87b56dd146105bf578063d5391393146105df578063d547741f14610601578063e985e9c514610621578063f517361914610641578063f72c0d8b14610661578063fc13518e14610683575b600080fd5b3480156101d157600080fd5b506101e56101e0366004612b37565b6106a3565b60405190151581526020015b60405180910390f35b34801561020657600080fd5b5061020f6106b4565b6040516101f19190612d74565b34801561022857600080fd5b5061023c610237366004612af9565b610746565b6040516101f19190612cf4565b34801561025557600080fd5b50610269610264366004612acd565b6107d3565b005b34801561027757600080fd5b5060c95461023c906001600160a01b031681565b34801561029757600080fd5b506099545b6040519081526020016101f1565b3480156102b657600080fd5b506102696102c536600461299f565b6108e4565b3480156102d657600080fd5b5061029c6102e5366004612af9565b610916565b3480156102f657600080fd5b50610269610305366004612b12565b61092c565b34801561031657600080fd5b5061029c610325366004612acd565b610949565b34801561033657600080fd5b50610269610345366004612b12565b6109df565b34801561035657600080fd5b50610269610365366004612949565b610a5d565b34801561037657600080fd5b5061026961038536600461299f565b610a84565b34801561039657600080fd5b506102696103a5366004612af9565b610a9f565b6102696103b8366004612a7e565b610b16565b3480156103c957600080fd5b5061029c6103d8366004612af9565b610b2b565b3480156103e957600080fd5b5061029c6103f8366004612af9565b610bbe565b34801561040957600080fd5b5061023c610418366004612af9565b610c3b565b34801561042957600080fd5b50610269610438366004612949565b610cb2565b34801561044957600080fd5b5061029c610458366004612949565b610d33565b34801561046957600080fd5b50610269610dba565b34801561047e57600080fd5b5061029c61048d366004612af9565b610f01565b34801561049e57600080fd5b506101e56104ad366004612b12565b610f7c565b3480156104be57600080fd5b506102696104cd366004612b71565b610fa8565b3480156104de57600080fd5b5061020f611000565b3480156104f357600080fd5b5061029c600081565b34801561050857600080fd5b50610269610517366004612a4b565b61100f565b34801561052857600080fd5b506101c45461023c906001600160a01b031681565b34801561054957600080fd5b50610269610558366004612acd565b6110d0565b34801561056957600080fd5b50610269610578366004612949565b6110db565b34801561058957600080fd5b5061029c60008051602061302183398151915281565b3480156105ab57600080fd5b506102696105ba3660046129e0565b6110fd565b3480156105cb57600080fd5b5061020f6105da366004612af9565b611135565b3480156105eb57600080fd5b5061029c6000805160206130a883398151915281565b34801561060d57600080fd5b5061026961061c366004612b12565b611200565b34801561062d57600080fd5b506101e561063c366004612966565b61121d565b34801561064d57600080fd5b5061026961065c366004612be2565b61124b565b34801561066d57600080fd5b5061029c60008051602061304183398151915281565b34801561068f57600080fd5b5061026961069e366004612949565b61126f565b60006106ae8261129f565b92915050565b6060606580546106c390612f1d565b80601f01602080910402602001604051908101604052809291908181526020018280546106ef90612f1d565b801561073c5780601f106107115761010080835404028352916020019161073c565b820191906000526020600020905b81548152906001019060200180831161071f57829003601f168201915b5050505050905090565b6000610751826112c4565b6107b75760405162461bcd60e51b815260206004820152602c60248201527f4552433732313a20617070726f76656420717565727920666f72206e6f6e657860448201526b34b9ba32b73a103a37b5b2b760a11b60648201526084015b60405180910390fd5b506000908152606960205260409020546001600160a01b031690565b60006107de82610c3b565b9050806001600160a01b0316836001600160a01b0316141561084c5760405162461bcd60e51b815260206004820152602160248201527f4552433732313a20617070726f76616c20746f2063757272656e74206f776e656044820152603960f91b60648201526084016107ae565b336001600160a01b03821614806108685750610868813361121d565b6108d55760405162461bcd60e51b815260206004820152603860248201527f4552433732313a20617070726f76652063616c6c6572206973206e6f74206f776044820152771b995c881b9bdc88185c1c1c9bdd995908199bdc88185b1b60421b60648201526084016107ae565b6108df83836112e1565b505050565b6108ef335b8261134f565b61090b5760405162461bcd60e51b81526004016107ae90612e27565b6108df838383611419565b600090815261012c602052604090206001015490565b61093582610916565b61093f81336115b2565b6108df8383611616565b600061095483610d33565b82106109b65760405162461bcd60e51b815260206004820152602b60248201527f455243373231456e756d657261626c653a206f776e657220696e646578206f7560448201526a74206f6620626f756e647360a81b60648201526084016107ae565b506001600160a01b03919091166000908152609760209081526040808320938352929052205490565b6001600160a01b0381163314610a4f5760405162461bcd60e51b815260206004820152602f60248201527f416363657373436f6e74726f6c3a2063616e206f6e6c792072656e6f756e636560448201526e103937b632b9903337b91039b2b63360891b60648201526084016107ae565b610a59828261169d565b5050565b610a6681611705565b610a818160405180602001604052806000815250600061171e565b50565b6108df838383604051806020016040528060008152506110fd565b610aa8336108e9565b610b0d5760405162461bcd60e51b815260206004820152603060248201527f4552433732314275726e61626c653a2063616c6c6572206973206e6f74206f7760448201526f1b995c881b9bdc88185c1c1c9bdd995960821b60648201526084016107ae565b610a8181611865565b610b1f82611705565b610a598282600161171e565b6000610b3660995490565b8210610b995760405162461bcd60e51b815260206004820152602c60248201527f455243373231456e756d657261626c653a20676c6f62616c20696e646578206f60448201526b7574206f6620626f756e647360a01b60648201526084016107ae565b60998281548110610bac57610bac612fc9565b90600052602060002001549050919050565b6000610bc9826112c4565b610c255760405162461bcd60e51b815260206004820152602760248201527f44657669636520726f6f7420717565727920666f72206e6f6e6578697374616e6044820152663a103a37b5b2b760c91b60648201526084016107ae565b50600090815260ca602052604090206003015490565b6000818152606760205260408120546001600160a01b0316806106ae5760405162461bcd60e51b815260206004820152602960248201527f4552433732313a206f776e657220717565727920666f72206e6f6e657869737460448201526832b73a103a37b5b2b760b91b60648201526084016107ae565b6000805160206130a8833981519152610ccb81336115b2565b636141fc604211610d115760405162461bcd60e51b815260206004820152601060248201526f21b0b73737ba1036b4b73a103cb2ba1760811b60448201526064016107ae565b610d2482610d1f6101c25490565b61186e565b610a596101c280546001019055565b60006001600160a01b038216610d9e5760405162461bcd60e51b815260206004820152602a60248201527f4552433732313a2062616c616e636520717565727920666f7220746865207a65604482015269726f206164647265737360b01b60648201526084016107ae565b506001600160a01b031660009081526068602052604090205490565b600054610100900460ff1680610dd3575060005460ff16155b610def5760405162461bcd60e51b81526004016107ae90612dd9565b600054610100900460ff16158015610e11576000805461ffff19166101011790555b610e636040518060400160405280601181526020017025b7b733902630b7321021b4ba34bd32b760791b8152506040518060400160405280600781526020016621a4aa24ad22a760c91b815250611888565b610e6b61190f565b610e7361190f565b610e7b61190f565b610e8361190f565b610e8b61197e565b610e966000336119dc565b610eae6000805160206130a8833981519152336119dc565b610ec6600080516020613041833981519152336119dc565b610ede600080516020613021833981519152336119dc565b610eed6101c280546001019055565b8015610a81576000805461ff001916905550565b6000610f0c826112c4565b610f665760405162461bcd60e51b815260206004820152602560248201527f44657669636520494420717565727920666f72206e6f6e6578697374616e74206044820152643a37b5b2b760d91b60648201526084016107ae565b50600090815260ca602052604090206002015490565b600091825261012c602090815260408084206001600160a01b0393909316845291905290205460ff1690565b6000610fb481336115b2565b610fc16101c38484612776565b507f157d450c8fb1377294d9db75af1de2753efc52d8e5578551d70d2c7d9cd74df98383604051610ff3929190612d45565b60405180910390a1505050565b6060606680546106c390612f1d565b6001600160a01b0382163314156110645760405162461bcd60e51b815260206004820152601960248201527822a9219b99189d1030b8383937bb32903a379031b0b63632b960391b60448201526064016107ae565b336000818152606a602090815260408083206001600160a01b03871680855290835292819020805460ff191686151590811790915590519081529192917f17307eab39ab6107e8899845ad3d59bd9653f200f220920489ca2b5937696c31910160405180910390a35050565b610a59338383610a84565b6000805160206130218339815191526110f481336115b2565b610a59826119e6565b611107338361134f565b6111235760405162461bcd60e51b81526004016107ae90612e27565b61112f84848484611a3d565b50505050565b6060611140826112c4565b6111a45760405162461bcd60e51b815260206004820152602f60248201527f4552433732314d657461646174613a2055524920717565727920666f72206e6f60448201526e3732bc34b9ba32b73a103a37b5b2b760891b60648201526084016107ae565b60006111ae611a70565b905060008151116111ce57604051806020016040528060008152506111f9565b806111d884611a80565b6040516020016111e9929190612c56565b6040516020818303038152906040525b9392505050565b61120982610916565b61121381336115b2565b6108df838361169d565b6001600160a01b039182166000908152606a6020908152604080832093909416825291909152205460ff1690565b60008051602061302183398151915261126481336115b2565b61112f848484611b7d565b600061127b81336115b2565b506101c480546001600160a01b0319166001600160a01b0392909216919091179055565b60006001600160e01b03198216637965db0b60e01b14806106ae57506106ae82611c2c565b6000908152606760205260409020546001600160a01b0316151590565b600081815260696020526040902080546001600160a01b0319166001600160a01b038416908117909155819061131682610c3b565b6001600160a01b03167f8c5be1e5ebec7d5bd14f71427d1e84f3dd0314c0f7b2291e5b200ac8c7c3b92560405160405180910390a45050565b600061135a826112c4565b6113bb5760405162461bcd60e51b815260206004820152602c60248201527f4552433732313a206f70657261746f7220717565727920666f72206e6f6e657860448201526b34b9ba32b73a103a37b5b2b760a11b60648201526084016107ae565b60006113c683610c3b565b9050806001600160a01b0316846001600160a01b031614806114015750836001600160a01b03166113f684610746565b6001600160a01b0316145b806114115750611411818561121d565b949350505050565b826001600160a01b031661142c82610c3b565b6001600160a01b0316146114945760405162461bcd60e51b815260206004820152602960248201527f4552433732313a207472616e73666572206f6620746f6b656e2074686174206960448201526839903737ba1037bbb760b91b60648201526084016107ae565b6001600160a01b0382166114f65760405162461bcd60e51b8152602060048201526024808201527f4552433732313a207472616e7366657220746f20746865207a65726f206164646044820152637265737360e01b60648201526084016107ae565b611501838383611c51565b61150c6000826112e1565b6001600160a01b0383166000908152606860205260408120805460019290611535908490612ec3565b90915550506001600160a01b0382166000908152606860205260408120805460019290611563908490612e78565b909155505060008181526067602052604080822080546001600160a01b0319166001600160a01b0386811691821790925591518493918716916000805160206130c883398151915291a4505050565b6115bc8282610f7c565b610a59576115d4816001600160a01b03166014611ced565b6115df836020611ced565b6040516020016115f0929190612c85565b60408051601f198184030181529082905262461bcd60e51b82526107ae91600401612d74565b6116208282610f7c565b610a5957600082815261012c602090815260408083206001600160a01b03851684529091529020805460ff191660011790556116593390565b6001600160a01b0316816001600160a01b0316837f2f8788117e7eff1d82e926ec794901d17c78024a50270940304540a733656f0d60405160405180910390a45050565b6116a78282610f7c565b15610a5957600082815261012c602090815260408083206001600160a01b0385168085529252808320805460ff1916905551339285917ff6391f5c32d9c69d2a47ea670b442974b53935d1edc7fd64eb21e047a839171b9190a45050565b600080516020613041833981519152610a5981336115b2565b6000611728611e88565b905061173384611ea4565b6000835111806117405750815b156117515761174f8484611f37565b505b7f4910fdfa16fed3260ed0e7147f7cc6da11a60208b5b9406d12a635614ffd9143805460ff1661185e57805460ff191660011781556040516117cc90869061179d908590602401612cf4565b60408051601f198184030181529190526020810180516001600160e01b0316631b2ce7f360e11b179052611f37565b50805460ff191681556117dd611e88565b6001600160a01b0316826001600160a01b0316146118555760405162461bcd60e51b815260206004820152602f60248201527f45524331393637557067726164653a207570677261646520627265616b73206660448201526e75727468657220757067726164657360881b60648201526084016107ae565b61185e85612022565b5050505050565b610a8181612062565b610a598282604051806020016040528060008152506120a5565b600054610100900460ff16806118a1575060005460ff16155b6118bd5760405162461bcd60e51b81526004016107ae90612dd9565b600054610100900460ff161580156118df576000805461ffff19166101011790555b6118e76120d8565b6118ef6120d8565b6118f98383612142565b80156108df576000805461ff0019169055505050565b600054610100900460ff1680611928575060005460ff16155b6119445760405162461bcd60e51b81526004016107ae90612dd9565b600054610100900460ff16158015611966576000805461ffff19166101011790555b61196e6120d8565b6119766120d8565b610eed6120d8565b600054610100900460ff1680611997575060005460ff16155b6119b35760405162461bcd60e51b81526004016107ae90612dd9565b600054610100900460ff1615801561196e576000805461ffff19166101011790556119766120d8565b610a598282611616565b60c980546001600160a01b0319166001600160a01b0383169081179091556040517fe882cd4ecccebb4897bd9859948ab1e5a95e1ff3a4769e6c2893f05230e9126391611a3291612cf4565b60405180910390a150565b611a48848484611419565b611a54848484846121d7565b61112f5760405162461bcd60e51b81526004016107ae90612d87565b60606101c380546106c390612f1d565b606081611aa45750506040805180820190915260018152600360fc1b602082015290565b8160005b8115611ace5780611ab881612f58565b9150611ac79050600a83612e90565b9150611aa8565b6000816001600160401b03811115611ae857611ae8612fdf565b6040519080825280601f01601f191660200182016040528015611b12576020820181803683370190505b5090505b841561141157611b27600183612ec3565b9150611b34600a86612f73565b611b3f906030612e78565b60f81b818381518110611b5457611b54612fc9565b60200101906001600160f81b031916908160001a905350611b76600a86612e90565b9450611b16565b611b86836112c4565b611bd25760405162461bcd60e51b815260206004820181905260248201527f4465766963652073657420666f72206e6f6e6578697374616e7420746f6b656e60448201526064016107ae565b600083815260ca60209081526040918290206002810185905560030183905581518581529081018490529081018290527fe55bd1e4d86ed292972e1bc062081870b72d1640a4b00954bd63859b4208c02890606001610ff3565b60006001600160e01b0319821663780e9d6360e01b14806106ae57506106ae826122e4565b611c5c838383612334565b6001600160a01b03831615801590611c7c57506001600160a01b03821615155b156108df576101c45460405163b7760c8f60e01b8152600481018390526001600160a01b0384811660248301529091169063b7760c8f90604401600060405180830381600087803b158015611cd057600080fd5b505af1158015611ce4573d6000803e3d6000fd5b50505050505050565b60606000611cfc836002612ea4565b611d07906002612e78565b6001600160401b03811115611d1e57611d1e612fdf565b6040519080825280601f01601f191660200182016040528015611d48576020820181803683370190505b509050600360fc1b81600081518110611d6357611d63612fc9565b60200101906001600160f81b031916908160001a905350600f60fb1b81600181518110611d9257611d92612fc9565b60200101906001600160f81b031916908160001a9053506000611db6846002612ea4565b611dc1906001612e78565b90505b6001811115611e39576f181899199a1a9b1b9c1cb0b131b232b360811b85600f1660108110611df557611df5612fc9565b1a60f81b828281518110611e0b57611e0b612fc9565b60200101906001600160f81b031916908160001a90535060049490941c93611e3281612f06565b9050611dc4565b5083156111f95760405162461bcd60e51b815260206004820181905260248201527f537472696e67733a20686578206c656e67746820696e73756666696369656e7460448201526064016107ae565b600080516020613061833981519152546001600160a01b031690565b803b611f085760405162461bcd60e51b815260206004820152602d60248201527f455243313936373a206e657720696d706c656d656e746174696f6e206973206e60448201526c1bdd08184818dbdb9d1c9858dd609a1b60648201526084016107ae565b60008051602061306183398151915280546001600160a01b0319166001600160a01b0392909216919091179055565b6060823b611f965760405162461bcd60e51b815260206004820152602660248201527f416464726573733a2064656c65676174652063616c6c20746f206e6f6e2d636f6044820152651b9d1c9858dd60d21b60648201526084016107ae565b600080846001600160a01b031684604051611fb19190612c3a565b600060405180830381855af49150503d8060008114611fec576040519150601f19603f3d011682016040523d82523d6000602084013e611ff1565b606091505b50915091506120198282604051806060016040528060278152602001613081602791396123ec565b95945050505050565b61202b81611ea4565b6040516001600160a01b038216907fbc7cd75a20ee27fd9adebab32041f755214dbc6bffa90cc0225b39da2e5c2d3b90600090a250565b61206b81612425565b600081815260ca602052604081209061208482826127fa565b6120926001830160006127fa565b5060006002820181905560039091015550565b6120af83836124ba565b6120bc60008484846121d7565b6108df5760405162461bcd60e51b81526004016107ae90612d87565b600054610100900460ff16806120f1575060005460ff16155b61210d5760405162461bcd60e51b81526004016107ae90612dd9565b600054610100900460ff16158015610eed576000805461ffff19166101011790558015610a81576000805461ff001916905550565b600054610100900460ff168061215b575060005460ff16155b6121775760405162461bcd60e51b81526004016107ae90612dd9565b600054610100900460ff16158015612199576000805461ffff19166101011790555b82516121ac906065906020860190612834565b5081516121c0906066906020850190612834565b5080156108df576000805461ff0019169055505050565b60006001600160a01b0384163b156122d957604051630a85bd0160e11b81526001600160a01b0385169063150b7a029061221b903390899088908890600401612d08565b602060405180830381600087803b15801561223557600080fd5b505af1925050508015612265575060408051601f3d908101601f1916820190925261226291810190612b54565b60015b6122bf573d808015612293576040519150601f19603f3d011682016040523d82523d6000602084013e612298565b606091505b5080516122b75760405162461bcd60e51b81526004016107ae90612d87565b805181602001fd5b6001600160e01b031916630a85bd0160e11b149050611411565b506001949350505050565b60006001600160e01b031982166380ac58cd60e01b148061231557506001600160e01b03198216635b5e139f60e01b145b806106ae57506301ffc9a760e01b6001600160e01b03198316146106ae565b6001600160a01b03831661238f5761238a81609980546000838152609a60205260408120829055600182018355919091527f72a152ddfb8e864297c917af52ea6c1c68aead0fee1a62673fcc7e0c94979d000155565b6123b2565b816001600160a01b0316836001600160a01b0316146123b2576123b283826125e6565b6001600160a01b0382166123c9576108df81612683565b826001600160a01b0316826001600160a01b0316146108df576108df8282612732565b606083156123fb5750816111f9565b82511561240b5782518084602001fd5b8160405162461bcd60e51b81526004016107ae9190612d74565b600061243082610c3b565b905061243e81600084611c51565b6124496000836112e1565b6001600160a01b0381166000908152606860205260408120805460019290612472908490612ec3565b909155505060008281526067602052604080822080546001600160a01b0319169055518391906001600160a01b038416906000805160206130c8833981519152908390a45050565b6001600160a01b0382166125105760405162461bcd60e51b815260206004820181905260248201527f4552433732313a206d696e7420746f20746865207a65726f206164647265737360448201526064016107ae565b612519816112c4565b156125655760405162461bcd60e51b815260206004820152601c60248201527b115490cdcc8c4e881d1bdad95b88185b1c9958591e481b5a5b9d195960221b60448201526064016107ae565b61257160008383611c51565b6001600160a01b038216600090815260686020526040812080546001929061259a908490612e78565b909155505060008181526067602052604080822080546001600160a01b0319166001600160a01b03861690811790915590518392906000805160206130c8833981519152908290a45050565b600060016125f384610d33565b6125fd9190612ec3565b600083815260986020526040902054909150808214612650576001600160a01b03841660009081526097602090815260408083208584528252808320548484528184208190558352609890915290208190555b5060009182526098602090815260408084208490556001600160a01b039094168352609781528383209183525290812055565b60995460009061269590600190612ec3565b6000838152609a6020526040812054609980549394509092849081106126bd576126bd612fc9565b9060005260206000200154905080609983815481106126de576126de612fc9565b6000918252602080832090910192909255828152609a9091526040808220849055858252812055609980548061271657612716612fb3565b6001900381819060005260206000200160009055905550505050565b600061273d83610d33565b6001600160a01b039093166000908152609760209081526040808320868452825280832085905593825260989052919091209190915550565b82805461278290612f1d565b90600052602060002090601f0160209004810192826127a457600085556127ea565b82601f106127bd5782800160ff198235161785556127ea565b828001600101855582156127ea579182015b828111156127ea5782358255916020019190600101906127cf565b506127f69291506128a8565b5090565b50805461280690612f1d565b6000825580601f10612816575050565b601f016020900490600052602060002090810190610a8191906128a8565b82805461284090612f1d565b90600052602060002090601f01602090048101928261286257600085556127ea565b82601f1061287b57805160ff19168380011785556127ea565b828001600101855582156127ea579182015b828111156127ea57825182559160200191906001019061288d565b5b808211156127f657600081556001016128a9565b600082601f8301126128ce57600080fd5b81356001600160401b03808211156128e8576128e8612fdf565b604051601f8301601f19908116603f0116810190828211818310171561291057612910612fdf565b8160405283815286602085880101111561292957600080fd5b836020870160208301376000602085830101528094505050505092915050565b60006020828403121561295b57600080fd5b81356111f981612ff5565b6000806040838503121561297957600080fd5b823561298481612ff5565b9150602083013561299481612ff5565b809150509250929050565b6000806000606084860312156129b457600080fd5b83356129bf81612ff5565b925060208401356129cf81612ff5565b929592945050506040919091013590565b600080600080608085870312156129f657600080fd5b8435612a0181612ff5565b93506020850135612a1181612ff5565b92506040850135915060608501356001600160401b03811115612a3357600080fd5b612a3f878288016128bd565b91505092959194509250565b60008060408385031215612a5e57600080fd5b8235612a6981612ff5565b91506020830135801515811461299457600080fd5b60008060408385031215612a9157600080fd5b8235612a9c81612ff5565b915060208301356001600160401b03811115612ab757600080fd5b612ac3858286016128bd565b9150509250929050565b60008060408385031215612ae057600080fd5b8235612aeb81612ff5565b946020939093013593505050565b600060208284031215612b0b57600080fd5b5035919050565b60008060408385031215612b2557600080fd5b82359150602083013561299481612ff5565b600060208284031215612b4957600080fd5b81356111f98161300a565b600060208284031215612b6657600080fd5b81516111f98161300a565b60008060208385031215612b8457600080fd5b82356001600160401b0380821115612b9b57600080fd5b818501915085601f830112612baf57600080fd5b813581811115612bbe57600080fd5b866020828501011115612bd057600080fd5b60209290920196919550909350505050565b600080600060608486031215612bf757600080fd5b505081359360208301359350604090920135919050565b60008151808452612c26816020860160208601612eda565b601f01601f19169290920160200192915050565b60008251612c4c818460208701612eda565b9190910192915050565b60008351612c68818460208801612eda565b835190830190612c7c818360208801612eda565b01949350505050565b76020b1b1b2b9b9a1b7b73a3937b61d1030b1b1b7bab73a1604d1b815260008351612cb7816017850160208801612eda565b7001034b99036b4b9b9b4b733903937b6329607d1b6017918401918201528351612ce8816028840160208801612eda565b01602801949350505050565b6001600160a01b0391909116815260200190565b6001600160a01b0385811682528416602082015260408101839052608060608201819052600090612d3b90830184612c0e565b9695505050505050565b60208152816020820152818360408301376000818301604090810191909152601f909201601f19160101919050565b6020815260006111f96020830184612c0e565b60208082526032908201527f4552433732313a207472616e7366657220746f206e6f6e20455243373231526560408201527131b2b4bb32b91034b6b83632b6b2b73a32b960711b606082015260800190565b6020808252602e908201527f496e697469616c697a61626c653a20636f6e747261637420697320616c72656160408201526d191e481a5b9a5d1a585b1a5e995960921b606082015260800190565b60208082526031908201527f4552433732313a207472616e736665722063616c6c6572206973206e6f74206f6040820152701ddb995c881b9bdc88185c1c1c9bdd9959607a1b606082015260800190565b60008219821115612e8b57612e8b612f87565b500190565b600082612e9f57612e9f612f9d565b500490565b6000816000190483118215151615612ebe57612ebe612f87565b500290565b600082821015612ed557612ed5612f87565b500390565b60005b83811015612ef5578181015183820152602001612edd565b8381111561112f5750506000910152565b600081612f1557612f15612f87565b506000190190565b600181811c90821680612f3157607f821691505b60208210811415612f5257634e487b7160e01b600052602260045260246000fd5b50919050565b6000600019821415612f6c57612f6c612f87565b5060010190565b600082612f8257612f82612f9d565b500690565b634e487b7160e01b600052601160045260246000fd5b634e487b7160e01b600052601260045260246000fd5b634e487b7160e01b600052603160045260246000fd5b634e487b7160e01b600052603260045260246000fd5b634e487b7160e01b600052604160045260246000fd5b6001600160a01b0381168114610a8157600080fd5b6001600160e01b031981168114610a8157600080fdfe48404ec5122cfef2c4b0b727fa211cfb1e815e1b19d5c56f7d3cc0c616120a28189ab7a9244df0848122154315af71fe140f3db0fe014031783b0946b8c9d2e3360894a13ba1a3210667c828492db98dca3e2076cc3735a920a3ca505d382bbc416464726573733a206c6f772d6c6576656c2064656c65676174652063616c6c206661696c65649f2df0fed2c77648de5860a4cc508cd0818c85b8b8a1ab4ceeef8d981c8956a6ddf252ad1be2c89b69c2b068fc378daa952ba7f163c4a11628f55a4df523b3efa26469706673582212205f1fd82e69a2f81bd966afe2b89e01bd68c1cdea1b61e3e7923c8614c57974f764736f6c63430008060033",
  "linkReferences": {},
  "deployedLinkReferences": {}
}