{
  "_format": "hh-sol-artifact-1",
  "contractName": "KongEntropyMerkle",
  "sourceName": "contracts/entropy/EntropyMerkle.sol",
  "abi": [
    {
      "inputs": [
        {
          "internalType": "address",
          "name": "eccAddress",
          "type": "address"
        },
        {
          "internalType": "address",
          "name": "regAddress",
          "type": "address"
        }
      ],
      "payable": false,
      "stateMutability": "nonpayable",
      "type": "constructor"
    },
    {
      "anonymous": false,
      "inputs": [
        {
          "indexed": false,
          "internalType": "bytes32",
          "name": "hardwareHash",
          "type": "bytes32"
        },
        {
          "indexed": false,
          "internalType": "bytes32",
          "name": "message",
          "type": "bytes32"
        },
        {
          "indexed": false,
          "internalType": "uint256",
          "name": "r",
          "type": "uint256"
        },
        {
          "indexed": false,
          "internalType": "uint256",
          "name": "s",
          "type": "uint256"
        }
      ],
      "name": "Minted",
      "type": "event"
    },
    {
      "constant": true,
      "inputs": [],
      "name": "_eccAddress",
      "outputs": [
        {
          "internalType": "address",
          "name": "",
          "type": "address"
        }
      ],
      "payable": false,
      "stateMutability": "view",
      "type": "function"
    },
    {
      "constant": true,
      "inputs": [
        {
          "internalType": "bytes32",
          "name": "",
          "type": "bytes32"
        }
      ],
      "name": "_mintedKeys",
      "outputs": [
        {
          "internalType": "bool",
          "name": "",
          "type": "bool"
        }
      ],
      "payable": false,
      "stateMutability": "view",
      "type": "function"
    },
    {
      "constant": true,
      "inputs": [],
      "name": "_regAddress",
      "outputs": [
        {
          "internalType": "address",
          "name": "",
          "type": "address"
        }
      ],
      "payable": false,
      "stateMutability": "view",
      "type": "function"
    },
    {
      "constant": true,
      "inputs": [
        {
          "internalType": "bytes32",
          "name": "hardwareHash",
          "type": "bytes32"
        }
      ],
      "name": "isDeviceMinted",
      "outputs": [
        {
          "internalType": "bool",
          "name": "",
          "type": "bool"
        }
      ],
      "payable": false,
      "stateMutability": "view",
      "type": "function"
    },
    {
      "constant": false,
      "inputs": [
        {
          "internalType": "bytes32[]",
          "name": "merkleProof",
          "type": "bytes32[]"
        },
        {
          "internalType": "bytes32",
          "name": "merkleRoot",
          "type": "bytes32"
        },
        {
          "internalType": "bytes32",
          "name": "primaryPublicKeyHash",
          "type": "bytes32"
        },
        {
          "internalType": "bytes32",
          "name": "secondaryPublicKeyHash",
          "type": "bytes32"
        },
        {
          "internalType": "bytes32",
          "name": "hardwareSerial",
          "type": "bytes32"
        },
        {
          "internalType": "uint256",
          "name": "tertiaryPublicKeyX",
          "type": "uint256"
        },
        {
          "internalType": "uint256",
          "name": "tertiaryPublicKeyY",
          "type": "uint256"
        },
        {
          "internalType": "address",
          "name": "to",
          "type": "address"
        },
        {
          "internalType": "uint256",
          "name": "blockNumber",
          "type": "uint256"
        },
        {
          "internalType": "uint256[2]",
          "name": "rs",
          "type": "uint256[2]"
        }
      ],
      "name": "submitEntropy",
      "outputs": [],
      "payable": false,
      "stateMutability": "nonpayable",
      "type": "function"
    }
  ],
  "bytecode": "0x608060405234801561001057600080fd5b50604051610d4c380380610d4c8339818101604052604081101561003357600080fd5b81019080805190602001909291908051906020019092919050505081600160006101000a81548173ffffffffffffffffffffffffffffffffffffffff021916908373ffffffffffffffffffffffffffffffffffffffff160217905550806000806101000a81548173ffffffffffffffffffffffffffffffffffffffff021916908373ffffffffffffffffffffffffffffffffffffffff1602179055505050610c6c806100e06000396000f3fe608060405234801561001057600080fd5b50600436106100575760003560e01c806303c97f411461005c578063105ce952146101bc578063aa8981c414610202578063b0532ff214610248578063dbb7990914610292575b600080fd5b6101ba600480360361016081101561007357600080fd5b810190808035906020019064010000000081111561009057600080fd5b8201836020820111156100a257600080fd5b803590602001918460208302840111640100000000831117156100c457600080fd5b919080806020026020016040519081016040528093929190818152602001838360200280828437600081840152601f19601f820116905080830192505050505050509192919290803590602001909291908035906020019092919080359060200190929190803590602001909291908035906020019092919080359060200190929190803573ffffffffffffffffffffffffffffffffffffffff1690602001909291908035906020019092919080604001906002806020026040519081016040528092919082600260200280828437600081840152601f19601f82011690508083019250505050505091929192905050506102dc565b005b6101e8600480360360208110156101d257600080fd5b8101908080359060200190929190505050610a74565b604051808215151515815260200191505060405180910390f35b61022e6004803603602081101561021857600080fd5b8101908080359060200190929190505050610a9e565b604051808215151515815260200191505060405180910390f35b610250610abe565b604051808273ffffffffffffffffffffffffffffffffffffffff1673ffffffffffffffffffffffffffffffffffffffff16815260200191505060405180910390f35b61029a610ae3565b604051808273ffffffffffffffffffffffffffffffffffffffff1673ffffffffffffffffffffffffffffffffffffffff16815260200191505060405180910390f35b60006002868660405160200180838152602001828152602001925050506040516020818303038152906040526040518082805190602001908083835b6020831061033b5780518252602082019150602081019050602083039250610318565b6001836020036101000a038019825116818451168082178552505050505050905001915050602060405180830381855afa15801561037d573d6000803e3d6000fd5b5050506040513d602081101561039257600080fd5b81019080805190602001909291905050509050600060028a8a848b604051602001808581526020018481526020018381526020018281526020019450505050506040516020818303038152906040526040518082805190602001908083835b6020831061041457805182526020820191506020810190506020830392506103f1565b6001836020036101000a038019825116818451168082178552505050505050905001915050602060405180830381855afa158015610456573d6000803e3d6000fd5b5050506040513d602081101561046b57600080fd5b81019080805190602001909291905050509050600015156002600083815260200190815260200160002060009054906101000a900460ff16151514610518576040517f08c379a000000000000000000000000000000000000000000000000000000000815260040180806020018281038252600f8152602001807f416c7265616479206d696e7465642e000000000000000000000000000000000081525060200191505060405180910390fd5b6000809054906101000a900473ffffffffffffffffffffffffffffffffffffffff1673ffffffffffffffffffffffffffffffffffffffff16633c40afbd826040518263ffffffff1660e01b81526004018082815260200191505060206040518083038186803b15801561058a57600080fd5b505afa15801561059e573d6000803e3d6000fd5b505050506040513d60208110156105b457600080fd5b8101908080519060200190929190505050610637576040517f08c379a00000000000000000000000000000000000000000000000000000000081526004018080602001828103825260138152602001807f4d696e74656420696e2072656769737472792e0000000000000000000000000081525060200191505060405180910390fd5b60004340905060008090505b678ac7230489e800006000809054906101000a900473ffffffffffffffffffffffffffffffffffffffff1673ffffffffffffffffffffffffffffffffffffffff16636884e8028f6040518263ffffffff1660e01b81526004018082815260200191505060206040518083038186803b1580156106be57600080fd5b505afa1580156106d2573d6000803e3d6000fd5b505050506040513d60208110156106e857600080fd5b81019080805190602001909291905050508161070057fe5b0481101561073e5781604051602001808281526020019150506040516020818303038152906040528051906020012091508080600101915050610643565b5060006002878740604051602001808373ffffffffffffffffffffffffffffffffffffffff1673ffffffffffffffffffffffffffffffffffffffff1660601b8152601401828152602001925050506040516020818303038152906040526040518082805190602001908083835b602083106107ce57805182526020820191506020810190506020830392506107ab565b6001836020036101000a038019825116818451168082178552505050505050905001915050602060405180830381855afa158015610810573d6000803e3d6000fd5b5050506040513d602081101561082557600080fd5b8101908080519060200190929190505050905061084481868b8b610b09565b6108b6576040517f08c379a00000000000000000000000000000000000000000000000000000000081526004018080602001828103825260128152602001807f496e76616c6964207369676e61747572652e000000000000000000000000000081525060200191505060405180910390fd5b6000809054906101000a900473ffffffffffffffffffffffffffffffffffffffff1673ffffffffffffffffffffffffffffffffffffffff16636667849d8f8f868b6040518563ffffffff1660e01b815260040180806020018581526020018481526020018373ffffffffffffffffffffffffffffffffffffffff1673ffffffffffffffffffffffffffffffffffffffff168152602001828103825286818151815260200191508051906020019060200280838360005b8381101561098757808201518184015260208101905061096c565b5050505090500195505050505050600060405180830381600087803b1580156109af57600080fd5b505af11580156109c3573d6000803e3d6000fd5b5050505060016002600085815260200190815260200160002060006101000a81548160ff0219169083151502179055507f69c79a3c85ac460316f3e631f664cfc1f2ae60cb0fef83965834013a25a47004838287600060028110610a2357fe5b602002015188600160028110610a3557fe5b60200201516040518085815260200184815260200183815260200182815260200194505050505060405180910390a15050505050505050505050505050565b60006002600083815260200190815260200160002060009054906101000a900460ff169050919050565b60026020528060005260406000206000915054906101000a900460ff1681565b6000809054906101000a900473ffffffffffffffffffffffffffffffffffffffff1681565b600160009054906101000a900473ffffffffffffffffffffffffffffffffffffffff1681565b6000600160009054906101000a900473ffffffffffffffffffffffffffffffffffffffff1673ffffffffffffffffffffffffffffffffffffffff166304e960d786866040518060400160405280888152602001878152506040518463ffffffff1660e01b81526004018084815260200183600260200280838360005b83811015610ba0578082015181840152602081019050610b85565b5050505090500182600260200280838360005b83811015610bce578082015181840152602081019050610bb3565b50505050905001935050505060206040518083038186803b158015610bf257600080fd5b505afa158015610c06573d6000803e3d6000fd5b505050506040513d6020811015610c1c57600080fd5b8101908080519060200190929190505050905094935050505056fea265627a7a72315820864ad8ee35f5ebfb96826711e61b07d52f2bc3cc17a48f02fc6b9c4f344dc15e64736f6c63430005110032",
  "linkReferences": {},
  "deployedLinkReferences": {}
}