{
  "_format": "hh-sol-artifact-1",
  "contractName": "RevealCitizen",
  "sourceName": "contracts/RevealCitizen.sol",
  "abi": [
    {
      "inputs": [
        {
          "internalType": "contract CitizenERC721",
          "name": "citizenERC721",
          "type": "address"
        }
      ],
      "stateMutability": "nonpayable",
      "type": "constructor"
    },
    {
      "anonymous": false,
      "inputs": [
        {
          "indexed": true,
          "internalType": "address",
          "name": "previousOwner",
          "type": "address"
        },
        {
          "indexed": true,
          "internalType": "address",
          "name": "newOwner",
          "type": "address"
        }
      ],
      "name": "OwnershipTransferred",
      "type": "event"
    },
    {
      "anonymous": false,
      "inputs": [
        {
          "indexed": false,
          "internalType": "uint256",
          "name": "tokenId",
          "type": "uint256"
        },
        {
          "indexed": false,
          "internalType": "uint256",
          "name": "primaryPublicKeyX",
          "type": "uint256"
        },
        {
          "indexed": false,
          "internalType": "uint256",
          "name": "primaryPublicKeyY",
          "type": "uint256"
        },
        {
          "indexed": false,
          "internalType": "uint256",
          "name": "r",
          "type": "uint256"
        },
        {
          "indexed": false,
          "internalType": "uint256",
          "name": "s",
          "type": "uint256"
        },
        {
          "indexed": false,
          "internalType": "uint256",
          "name": "blockNumber",
          "type": "uint256"
        }
      ],
      "name": "Reveal",
      "type": "event"
    },
    {
      "anonymous": false,
      "inputs": [
        {
          "indexed": false,
          "internalType": "address",
          "name": "_revealOracleAddr",
          "type": "address"
        }
      ],
      "name": "RevealOracleAddress",
      "type": "event"
    },
    {
      "inputs": [],
      "name": "_citizenERC721",
      "outputs": [
        {
          "internalType": "contract CitizenERC721",
          "name": "",
          "type": "address"
        }
      ],
      "stateMutability": "view",
      "type": "function"
    },
    {
      "inputs": [],
      "name": "_revealOracleAddr",
      "outputs": [
        {
          "internalType": "address",
          "name": "",
          "type": "address"
        }
      ],
      "stateMutability": "view",
      "type": "function"
    },
    {
      "inputs": [],
      "name": "owner",
      "outputs": [
        {
          "internalType": "address",
          "name": "",
          "type": "address"
        }
      ],
      "stateMutability": "view",
      "type": "function"
    },
    {
      "inputs": [],
      "name": "renounceOwnership",
      "outputs": [],
      "stateMutability": "nonpayable",
      "type": "function"
    },
    {
      "inputs": [
        {
          "internalType": "uint256",
          "name": "tokenId",
          "type": "uint256"
        },
        {
          "internalType": "uint256[2]",
          "name": "rs",
          "type": "uint256[2]"
        },
        {
          "internalType": "uint256",
          "name": "primaryPublicKeyX",
          "type": "uint256"
        },
        {
          "internalType": "uint256",
          "name": "primaryPublicKeyY",
          "type": "uint256"
        },
        {
          "internalType": "uint256",
          "name": "blockNumber",
          "type": "uint256"
        },
        {
          "internalType": "bytes32",
          "name": "merkleRoot",
          "type": "bytes32"
        },
        {
          "internalType": "bytes",
          "name": "oracleSignature",
          "type": "bytes"
        }
      ],
      "name": "revealOracle",
      "outputs": [],
      "stateMutability": "nonpayable",
      "type": "function"
    },
    {
      "inputs": [
        {
          "internalType": "address",
          "name": "newOwner",
          "type": "address"
        }
      ],
      "name": "transferOwnership",
      "outputs": [],
      "stateMutability": "nonpayable",
      "type": "function"
    },
    {
      "inputs": [
        {
          "internalType": "address",
          "name": "newAddr",
          "type": "address"
        }
      ],
      "name": "updateRevealAddr",
      "outputs": [],
      "stateMutability": "nonpayable",
      "type": "function"
    }
  ],
  "bytecode": "0x608060405234801561001057600080fd5b50604051610e54380380610e5483398101604081905261002f916100ad565b6100383361005d565b600180546001600160a01b0319166001600160a01b03929092169190911790556100dd565b600080546001600160a01b038381166001600160a01b0319831681178455604051919092169283917f8be0079c531659141344cd1fd0a4f28419497f9722a3daafe3b4186f6b6457e09190a35050565b6000602082840312156100bf57600080fd5b81516001600160a01b03811681146100d657600080fd5b9392505050565b610d68806100ec6000396000f3fe608060405234801561001057600080fd5b506004361061006d5760003560e01c8063052ba1be14610072578063123450161461009b57806333ccaf4d146100b0578063715018a6146100c35780638da5cb5b146100cb578063cf88b8ea146100d3578063f2fde38b146100e6575b600080fd5b600254610085906001600160a01b031681565b6040516100929190610c80565b60405180910390f35b6100ae6100a9366004610af6565b6100f9565b005b6100ae6100be366004610b50565b610188565b6100ae610644565b61008561067f565b600154610085906001600160a01b031681565b6100ae6100f4366004610af6565b61068e565b3361010261067f565b6001600160a01b0316146101315760405162461bcd60e51b815260040161012890610c94565b60405180910390fd5b600280546001600160a01b0319166001600160a01b0383169081179091556040517f2602ea5a1a9c74bc14c2f90fd14e2bbdc613b4e3c8c3e545bb474113510f19dc9161017d91610c80565b60405180910390a150565b6001546040516331a9108f60e11b815260048101899052339182916001600160a01b0390911690636352211e9060240160206040518083038186803b1580156101d057600080fd5b505afa1580156101e4573d6000803e3d6000fd5b505050506040513d601f19601f820116820180604052508101906102089190610b1a565b6001600160a01b03161461025e5760405162461bcd60e51b815260206004820152601d60248201527f4f6e6c7920746f6b656e20686f6c6465722063616e2072657665616c2e0000006044820152606401610128565b6001546040516390e4c33d60e01b8152600481018a90526001600160a01b03909116906390e4c33d9060240160206040518083038186803b1580156102a257600080fd5b505afa1580156102b6573d6000803e3d6000fd5b505050506040513d601f19601f820116820180604052508101906102da9190610b37565b1561031d5760405162461bcd60e51b81526020600482015260136024820152722232bb34b1b29030b63932b0b23c9039b2ba1760691b6044820152606401610128565b60006002878760405160200161033d929190918252602082015260400190565b60408051601f198184030181529082905261035791610c45565b602060405180830381855afa158015610374573d6000803e3d6000fd5b5050506040513d601f19601f820116820180604052508101906103979190610b37565b9050600060028260028b6040516020016103b19190610c11565b60408051601f19818403018152908290526103cb91610c45565b602060405180830381855afa1580156103e8573d6000803e3d6000fd5b5050506040513d601f19601f8201168201806040525081019061040b9190610b37565b6040516001600160601b0319606088901b1660208201528940603482015260029060540160408051601f198184030181529082905261044991610c45565b602060405180830381855afa158015610466573d6000803e3d6000fd5b5050506040513d601f19601f820116820180604052508101906104899190610b37565b604080516020810194909452830191909152606082015260800160408051601f19818403018152908290526104bd91610c45565b602060405180830381855afa1580156104da573d6000803e3d6000fd5b5050506040513d601f19601f820116820180604052508101906104fd9190610b37565b60025490915061051990829086906001600160a01b031661072e565b6105565760405162461bcd60e51b815260206004820152600e60248201526d2b32b934b33c903330b4b632b21760911b6044820152606401610128565b60015460405163f517361960e01b8152600481018c905260248101849052604481018790526001600160a01b039091169063f517361990606401600060405180830381600087803b1580156105aa57600080fd5b505af11580156105be573d6000803e3d6000fd5b505050507f757fbbbe9c413ddaeeb07f48476b8e8e9ab1bcc24d040d26e53e78b406ffd3ed8a89898c6000600281106105f9576105f9610cf1565b602090810291909101518e8201516040805196875292860194909452908401919091526060830152608082015260a0810188905260c00160405180910390a150505050505050505050565b3361064d61067f565b6001600160a01b0316146106735760405162461bcd60e51b815260040161012890610c94565b61067d60006107ac565b565b6000546001600160a01b031690565b3361069761067f565b6001600160a01b0316146106bd5760405162461bcd60e51b815260040161012890610c94565b6001600160a01b0381166107225760405162461bcd60e51b815260206004820152602660248201527f4f776e61626c653a206e6577206f776e657220697320746865207a65726f206160448201526564647265737360d01b6064820152608401610128565b61072b816107ac565b50565b6000816001600160a01b031661079a84610794876040517b0ca2ba3432b932bab69029b4b3b732b21026b2b9b9b0b3b29d05199960211b6020820152603c8101829052600090605c01604051602081830303815290604052805190602001209050919050565b906107fc565b6001600160a01b031614949350505050565b600080546001600160a01b038381166001600160a01b0319831681178455604051919092169283917f8be0079c531659141344cd1fd0a4f28419497f9722a3daafe3b4186f6b6457e09190a35050565b60008151604114156108305760208201516040830151606084015160001a610826868285856108a6565b93505050506108a0565b815160401415610858576020820151604083015161084f858383610a40565b925050506108a0565b60405162461bcd60e51b815260206004820152601f60248201527f45434453413a20696e76616c6964207369676e6174757265206c656e677468006044820152606401610128565b92915050565b60006fa2a8918ca85bafe22016d0b997e4df60600160ff1b038211156109195760405162461bcd60e51b815260206004820152602260248201527f45434453413a20696e76616c6964207369676e6174757265202773272076616c604482015261756560f01b6064820152608401610128565b8360ff16601b148061092e57508360ff16601c145b6109855760405162461bcd60e51b815260206004820152602260248201527f45434453413a20696e76616c6964207369676e6174757265202776272076616c604482015261756560f01b6064820152608401610128565b6040805160008082526020820180845288905260ff871692820192909252606081018590526080810184905260019060a0016020604051602081039080840390855afa1580156109d9573d6000803e3d6000fd5b5050604051601f1901519150506001600160a01b038116610a375760405162461bcd60e51b815260206004820152601860248201527745434453413a20696e76616c6964207369676e617475726560401b6044820152606401610128565b95945050505050565b60006001600160ff1b03821660ff83901c601b01610a60868287856108a6565b9695505050505050565b600082601f830112610a7b57600080fd5b81356001600160401b0380821115610a9557610a95610d07565b604051601f8301601f19908116603f01168101908282118183101715610abd57610abd610d07565b81604052838152866020858801011115610ad657600080fd5b836020870160208301376000602085830101528094505050505092915050565b600060208284031215610b0857600080fd5b8135610b1381610d1d565b9392505050565b600060208284031215610b2c57600080fd5b8151610b1381610d1d565b600060208284031215610b4957600080fd5b5051919050565b6000806000806000806000610100888a031215610b6c57600080fd5b87359650602089603f8a0112610b8157600080fd5b610b89610cc9565b80828b0160608c018d811115610b9e57600080fd5b60005b6002811015610bbe57823585529385019391850191600101610ba1565b509199505035965050506080880135935060a0880135925060c0880135915060e08801356001600160401b03811115610bf657600080fd5b610c028a828b01610a6a565b91505092959891949750929550565b60008183825b6002811015610c36578151835260209283019290910190600101610c17565b50505060408201905092915050565b6000825160005b81811015610c665760208186018101518583015201610c4c565b81811115610c75576000828501525b509190910192915050565b6001600160a01b0391909116815260200190565b6020808252818101527f4f776e61626c653a2063616c6c6572206973206e6f7420746865206f776e6572604082015260600190565b604080519081016001600160401b0381118282101715610ceb57610ceb610d07565b60405290565b634e487b7160e01b600052603260045260246000fd5b634e487b7160e01b600052604160045260246000fd5b6001600160a01b038116811461072b57600080fdfea26469706673582212201424d3adb938a2c1f299411d9cc9e09d8658656754740f1464bec565b5b6dd1f64736f6c63430008060033",
  "linkReferences": {},
  "deployedLinkReferences": {}
}